{
    "_format": "hh-sol-artifact-1",
    "contractName": "AizuMujin",
    "sourceName": "contracts/AizuMujin.sol",
    "abi": [
        {
            "inputs": [
                {
                    "internalType": "address",
                    "name": "_amtAddress",
                    "type": "address"
                }
            ],
            "stateMutability": "nonpayable",
            "type": "constructor"
        },
        {
            "inputs": [
                {
                    "internalType": "address",
                    "name": "account",
                    "type": "address"
                }
            ],
            "name": "balanceOf",
            "outputs": [
                {
                    "internalType": "uint256",
                    "name": "",
                    "type": "uint256"
                }
            ],
            "stateMutability": "view",
            "type": "function"
        },
        {
            "inputs": [
                {
                    "internalType": "uint256",
                    "name": "_amount",
                    "type": "uint256"
                }
            ],
            "name": "depositTokens",
            "outputs": [],
            "stateMutability": "nonpayable",
            "type": "function"
        },
        {
            "inputs": [],
            "name": "faucet",
            "outputs": [],
            "stateMutability": "nonpayable",
            "type": "function"
        },
        {
            "inputs": [],
            "name": "getContractBalance",
            "outputs": [
                {
                    "internalType": "uint256",
                    "name": "",
                    "type": "uint256"
                }
            ],
            "stateMutability": "view",
            "type": "function"
        },
        {
            "inputs": [],
            "name": "getTotalDepositToken",
            "outputs": [
                {
                    "internalType": "uint256",
                    "name": "",
                    "type": "uint256"
                }
            ],
            "stateMutability": "view",
            "type": "function"
        },
        {
            "inputs": [],
            "name": "name",
            "outputs": [
                {
                    "internalType": "string",
                    "name": "",
                    "type": "string"
                }
            ],
            "stateMutability": "view",
            "type": "function"
        },
        {
            "inputs": [
                {
                    "internalType": "address",
                    "name": "_toAdder",
                    "type": "address"
                }
            ],
            "name": "sendAllTokens",
            "outputs": [],
            "stateMutability": "nonpayable",
            "type": "function"
        },
        {
            "inputs": [
                {
                    "internalType": "uint256",
                    "name": "_amount",
                    "type": "uint256"
                }
            ],
            "name": "setFaucetDripAmount",
            "outputs": [],
            "stateMutability": "nonpayable",
            "type": "function"
        },
        {
            "inputs": [
                {
                    "internalType": "address",
                    "name": "_tokenAddr",
                    "type": "address"
                }
            ],
            "name": "setTokenAddress",
            "outputs": [],
            "stateMutability": "nonpayable",
            "type": "function"
        },
        {
            "inputs": [],
            "name": "symbol",
            "outputs": [
                {
                    "internalType": "string",
                    "name": "",
                    "type": "string"
                }
            ],
            "stateMutability": "view",
            "type": "function"
        },
        {
            "inputs": [],
            "name": "totalSupply",
            "outputs": [
                {
                    "internalType": "uint256",
                    "name": "",
                    "type": "uint256"
                }
            ],
            "stateMutability": "view",
            "type": "function"
        },
        {
            "inputs": [
                {
                    "internalType": "address",
                    "name": "_receiver",
                    "type": "address"
                },
                {
                    "internalType": "uint256",
                    "name": "_amount",
                    "type": "uint256"
                }
            ],
            "name": "withdrawTokens",
            "outputs": [],
            "stateMutability": "nonpayable",
            "type": "function"
        }
    ],
    "bytecode": "0x60806040526040518060400160405280601081526020017f41697a75204d756a696e20546f6b656e000000000000000000000000000000008152506000908051906020019062000051929190620001d1565b506040518060400160405280600381526020017f414d540000000000000000000000000000000000000000000000000000000000815250600190805190602001906200009f929190620001d1565b506305f5e1006003556000600b55348015620000ba57600080fd5b5060405162001a0838038062001a088339818101604052810190620000e0919062000298565b80600460006101000a81548173ffffffffffffffffffffffffffffffffffffffff021916908373ffffffffffffffffffffffffffffffffffffffff16021790555080600560006101000a81548173ffffffffffffffffffffffffffffffffffffffff021916908373ffffffffffffffffffffffffffffffffffffffff16021790555060035460026000600560009054906101000a900473ffffffffffffffffffffffffffffffffffffffff1673ffffffffffffffffffffffffffffffffffffffff1673ffffffffffffffffffffffffffffffffffffffff168152602001908152602001600020819055505062000377565b828054620001df90620002f8565b90600052602060002090601f0160209004810192826200020357600085556200024f565b82601f106200021e57805160ff19168380011785556200024f565b828001600101855582156200024f579182015b828111156200024e57825182559160200191906001019062000231565b5b5090506200025e919062000262565b5090565b5b808211156200027d57600081600090555060010162000263565b5090565b60008151905062000292816200035d565b92915050565b600060208284031215620002ab57600080fd5b6000620002bb8482850162000281565b91505092915050565b6000620002d182620002d8565b9050919050565b600073ffffffffffffffffffffffffffffffffffffffff82169050919050565b600060028204905060018216806200031157607f821691505b602082108114156200032857620003276200032e565b5b50919050565b7f4e487b7100000000000000000000000000000000000000000000000000000000600052602260045260246000fd5b6200036881620002c4565b81146200037457600080fd5b50565b61168180620003876000396000f3fe608060405234801561001057600080fd5b50600436106100b45760003560e01c806370a082311161007157806370a082311461016757806390bd09841461019757806395d89b41146101b5578063c02bd9a5146101d3578063dd49756e146101ef578063de5f72fd1461020b576100b4565b806306b091f9146100b957806306fdde03146100d557806318160ddd146100f35780631a0c069a1461011157806326a4e8d21461012d5780636f9fb98a14610149575b600080fd5b6100d360048036038101906100ce9190611047565b610215565b005b6100dd610446565b6040516100ea91906112a8565b60405180910390f35b6100fb6104d4565b604051610108919061136a565b60405180910390f35b61012b600480360381019061012691906110ac565b6104da565b005b6101476004803603810190610142919061101e565b610574565b005b610151610648565b60405161015e919061136a565b60405180910390f35b610181600480360381019061017c919061101e565b6106fa565b60405161018e919061136a565b60405180910390f35b61019f610743565b6040516101ac919061136a565b60405180910390f35b6101bd61078a565b6040516101ca91906112a8565b60405180910390f35b6101ed60048036038101906101e8919061101e565b610818565b005b610209600480360381019061020491906110ac565b610b81565b005b610213610e6e565b005b600560009054906101000a900473ffffffffffffffffffffffffffffffffffffffff1673ffffffffffffffffffffffffffffffffffffffff163373ffffffffffffffffffffffffffffffffffffffff16146102a5576040517f08c379a000000000000000000000000000000000000000000000000000000000815260040161029c906112ea565b60405180910390fd5b80600460009054906101000a900473ffffffffffffffffffffffffffffffffffffffff1673ffffffffffffffffffffffffffffffffffffffff166370a08231306040518263ffffffff1660e01b81526004016103019190611204565b60206040518083038186803b15801561031957600080fd5b505afa15801561032d573d6000803e3d6000fd5b505050506040513d601f19601f8201168201806040525081019061035191906110d5565b1015610392576040517f08c379a0000000000000000000000000000000000000000000000000000000008152600401610389906112ca565b60405180910390fd5b600460009054906101000a900473ffffffffffffffffffffffffffffffffffffffff1673ffffffffffffffffffffffffffffffffffffffff1663a9059cbb83836040518363ffffffff1660e01b81526004016103ef92919061127f565b602060405180830381600087803b15801561040957600080fd5b505af115801561041d573d6000803e3d6000fd5b505050506040513d601f19601f820116820180604052508101906104419190611083565b505050565b6000805461045390611472565b80601f016020809104026020016040519081016040528092919081815260200182805461047f90611472565b80156104cc5780601f106104a1576101008083540402835291602001916104cc565b820191906000526020600020905b8154815290600101906020018083116104af57829003601f168201915b505050505081565b60035481565b600560009054906101000a900473ffffffffffffffffffffffffffffffffffffffff1673ffffffffffffffffffffffffffffffffffffffff163373ffffffffffffffffffffffffffffffffffffffff161461056a576040517f08c379a0000000000000000000000000000000000000000000000000000000008152600401610561906112ea565b60405180910390fd5b80600b8190555050565b600560009054906101000a900473ffffffffffffffffffffffffffffffffffffffff1673ffffffffffffffffffffffffffffffffffffffff163373ffffffffffffffffffffffffffffffffffffffff1614610604576040517f08c379a00000000000000000000000000000000000000000000000000000000081526004016105fb906112ea565b60405180910390fd5b80600460006101000a81548173ffffffffffffffffffffffffffffffffffffffff021916908373ffffffffffffffffffffffffffffffffffffffff16021790555050565b6000600460009054906101000a900473ffffffffffffffffffffffffffffffffffffffff1673ffffffffffffffffffffffffffffffffffffffff166370a08231306040518263ffffffff1660e01b81526004016106a59190611204565b60206040518083038186803b1580156106bd57600080fd5b505afa1580156106d1573d6000803e3d6000fd5b505050506040513d601f19601f820116820180604052508101906106f591906110d5565b905090565b6000600860008373ffffffffffffffffffffffffffffffffffffffff1673ffffffffffffffffffffffffffffffffffffffff168152602001908152602001600020549050919050565b6000600860003373ffffffffffffffffffffffffffffffffffffffff1673ffffffffffffffffffffffffffffffffffffffff16815260200190815260200160002054905090565b6001805461079790611472565b80601f01602080910402602001604051908101604052809291908181526020018280546107c390611472565b80156108105780601f106107e557610100808354040283529160200191610810565b820191906000526020600020905b8154815290600101906020018083116107f357829003601f168201915b505050505081565b6001600460009054906101000a900473ffffffffffffffffffffffffffffffffffffffff1673ffffffffffffffffffffffffffffffffffffffff166370a08231306040518263ffffffff1660e01b81526004016108759190611204565b60206040518083038186803b15801561088d57600080fd5b505afa1580156108a1573d6000803e3d6000fd5b505050506040513d601f19601f820116820180604052508101906108c591906110d5565b11610905576040517f08c379a00000000000000000000000000000000000000000000000000000000081526004016108fc9061132a565b60405180910390fd5b42600660008373ffffffffffffffffffffffffffffffffffffffff1673ffffffffffffffffffffffffffffffffffffffff1681526020019081526020016000205410610986576040517f08c379a000000000000000000000000000000000000000000000000000000000815260040161097d9061130a565b60405180910390fd5b603c4261099391906113a1565b600660008373ffffffffffffffffffffffffffffffffffffffff1673ffffffffffffffffffffffffffffffffffffffff16815260200190815260200160002081905550600460009054906101000a900473ffffffffffffffffffffffffffffffffffffffff1673ffffffffffffffffffffffffffffffffffffffff166370a08231306040518263ffffffff1660e01b8152600401610a319190611204565b60206040518083038186803b158015610a4957600080fd5b505afa158015610a5d573d6000803e3d6000fd5b505050506040513d601f19601f82011682018060405250810190610a8191906110d5565b600b819055506000600860008373ffffffffffffffffffffffffffffffffffffffff1673ffffffffffffffffffffffffffffffffffffffff16815260200190815260200160002081905550600460009054906101000a900473ffffffffffffffffffffffffffffffffffffffff1673ffffffffffffffffffffffffffffffffffffffff1663a9059cbb82600b546040518363ffffffff1660e01b8152600401610b2b92919061127f565b602060405180830381600087803b158015610b4557600080fd5b505af1158015610b59573d6000803e3d6000fd5b505050506040513d601f19601f82011682018060405250810190610b7d9190611083565b5050565b8080600460009054906101000a900473ffffffffffffffffffffffffffffffffffffffff1673ffffffffffffffffffffffffffffffffffffffff1663dd62ed3e33306040518363ffffffff1660e01b8152600401610be092919061121f565b60206040518083038186803b158015610bf857600080fd5b505afa158015610c0c573d6000803e3d6000fd5b505050506040513d601f19601f82011682018060405250810190610c3091906110d5565b1015610c71576040517f08c379a0000000000000000000000000000000000000000000000000000000008152600401610c689061134a565b60405180910390fd5b6000600960003373ffffffffffffffffffffffffffffffffffffffff1673ffffffffffffffffffffffffffffffffffffffff168152602001908152602001600020541415610d62576001600960003373ffffffffffffffffffffffffffffffffffffffff1673ffffffffffffffffffffffffffffffffffffffff16815260200190815260200160002081905550600a339080600181540180825580915050600190039060005260206000200160009091909190916101000a81548173ffffffffffffffffffffffffffffffffffffffff021916908373ffffffffffffffffffffffffffffffffffffffff1602179055505b81600860003373ffffffffffffffffffffffffffffffffffffffff1673ffffffffffffffffffffffffffffffffffffffff1681526020019081526020016000206000828254610db191906113a1565b92505081905550600460009054906101000a900473ffffffffffffffffffffffffffffffffffffffff1673ffffffffffffffffffffffffffffffffffffffff166323b872dd3330856040518463ffffffff1660e01b8152600401610e1793929190611248565b602060405180830381600087803b158015610e3157600080fd5b505af1158015610e45573d6000803e3d6000fd5b505050506040513d601f19601f82011682018060405250810190610e699190611083565b505050565b600460009054906101000a900473ffffffffffffffffffffffffffffffffffffffff1673ffffffffffffffffffffffffffffffffffffffff1663a9059cbb33600460009054906101000a900473ffffffffffffffffffffffffffffffffffffffff1673ffffffffffffffffffffffffffffffffffffffff166370a08231306040518263ffffffff1660e01b8152600401610f089190611204565b60206040518083038186803b158015610f2057600080fd5b505afa158015610f34573d6000803e3d6000fd5b505050506040513d601f19601f82011682018060405250810190610f5891906110d5565b6040518363ffffffff1660e01b8152600401610f7592919061127f565b602060405180830381600087803b158015610f8f57600080fd5b505af1158015610fa3573d6000803e3d6000fd5b505050506040513d601f19601f82011682018060405250810190610fc79190611083565b50565b600081359050610fd981611606565b92915050565b600081519050610fee8161161d565b92915050565b60008135905061100381611634565b92915050565b60008151905061101881611634565b92915050565b60006020828403121561103057600080fd5b600061103e84828501610fca565b91505092915050565b6000806040838503121561105a57600080fd5b600061106885828601610fca565b925050602061107985828601610ff4565b9150509250929050565b60006020828403121561109557600080fd5b60006110a384828501610fdf565b91505092915050565b6000602082840312156110be57600080fd5b60006110cc84828501610ff4565b91505092915050565b6000602082840312156110e757600080fd5b60006110f584828501611009565b91505092915050565b611107816113f7565b82525050565b600061111882611385565b6111228185611390565b935061113281856020860161143f565b61113b81611502565b840191505092915050565b6000611153601f83611390565b915061115e82611513565b602082019050919050565b6000611176601d83611390565b91506111818261153c565b602082019050919050565b6000611199601c83611390565b91506111a482611565565b602082019050919050565b60006111bc601283611390565b91506111c78261158e565b602082019050919050565b60006111df602e83611390565b91506111ea826115b7565b604082019050919050565b6111fe81611435565b82525050565b600060208201905061121960008301846110fe565b92915050565b600060408201905061123460008301856110fe565b61124160208301846110fe565b9392505050565b600060608201905061125d60008301866110fe565b61126a60208301856110fe565b61127760408301846111f5565b949350505050565b600060408201905061129460008301856110fe565b6112a160208301846111f5565b9392505050565b600060208201905081810360008301526112c2818461110d565b905092915050565b600060208201905081810360008301526112e381611146565b9050919050565b6000602082019050818103600083015261130381611169565b9050919050565b600060208201905081810360008301526113238161118c565b9050919050565b60006020820190508181036000830152611343816111af565b9050919050565b60006020820190508181036000830152611363816111d2565b9050919050565b600060208201905061137f60008301846111f5565b92915050565b600081519050919050565b600082825260208201905092915050565b60006113ac82611435565b91506113b783611435565b9250827fffffffffffffffffffffffffffffffffffffffffffffffffffffffffffffffff038211156113ec576113eb6114a4565b5b828201905092915050565b600061140282611415565b9050919050565b60008115159050919050565b600073ffffffffffffffffffffffffffffffffffffffff82169050919050565b6000819050919050565b60005b8381101561145d578082015181840152602081019050611442565b8381111561146c576000848401525b50505050565b6000600282049050600182168061148a57607f821691505b6020821081141561149e5761149d6114d3565b5b50919050565b7f4e487b7100000000000000000000000000000000000000000000000000000000600052601160045260246000fd5b7f4e487b7100000000000000000000000000000000000000000000000000000000600052602260045260246000fd5b6000601f19601f8301169050919050565b7f4661756365744572726f723a20496e73756666696369656e742066756e647300600082015250565b7f4661756365744572726f723a2043616c6c6572206e6f74206f776e6572000000600082015250565b7f4661756365744572726f723a2054727920616761696e206c6174657200000000600082015250565b7f4661756365744572726f723a20456d7074790000000000000000000000000000600082015250565b7f4e6f7420616c6c6f77656420746f206465706f736974207468697320616d6f7560008201527f6e74206f6620746f6b656e732021000000000000000000000000000000000000602082015250565b61160f816113f7565b811461161a57600080fd5b50565b61162681611409565b811461163157600080fd5b50565b61163d81611435565b811461164857600080fd5b5056fea26469706673582212209543518583f97e922cf5020c2c3829ed3982311a69972d1c5d611e13d7cccdd964736f6c63430008040033",
    "linkReferences": {},
    "deployedLinkReferences": {}
}